:100000000C9462000C948A000C948A000C948A0070
:100010000C948A000C948A000C948A000C948A0038
:100020000C948A000C94B8010C948A000C948A00F9
:100030000C948A000C948A000C948A000C948A0018
:100040000C942C040C948A000C94E3010C9431025F
:100050000C948A000C948A000C948A000C948A00F8
:100060000C948A000C948A000000000024002700F1
:100070002A0000000000250028002B0000000000DE
:1000800023002600290004040404040404040202DA
:100090000202020203030303030301020408102007
:1000A0004080010204081020010204081020000012
:1000B0000007000201000003040600000000000029
:1000C00000009D0311241FBECFEFD8E0DEBFCDBFDF
:1000D00011E0A0E0B1E0E4EAFBE002C005900D927F
:1000E000A431B107D9F711E0A4E1B1E001C01D923C
:1000F000A03EB107E1F710E0C4ECD0E004C02297C5
:10010000FE010E94CC05C23CD107C9F70E94F3034F
:100110000C94D0050C94000068EE73E080E090E051
:100120000E94A8048DE061E00E94750568EE73E00E
:1001300080E090E00E94A8048DE060E00E947505D8
:1001400008950E94CE0485EB91E040E855E260E01E
:1001500070E00E946C028091000160E00E9409053D
:100160008091020160E00E9409058DE061E00E943B
:10017000090564E670E080E090E044EC50E00E9405
:100180000F010E945701089520911401309115012B
:100190004091160150911701809118019091190119
:1001A000A0911A01B0911B01281739074A075B0774
:1001B0000CF408950E94740420911C0130911D01DB
:1001C00040911E0150911F012091140130911501A1
:1001D0004091160150911701209118013091190199
:1001E00040911A0150911B019B01AC0120931C010D
:1001F00030931D0140931E0150931F018091140103
:1002000090911501A0911601B091170180931801EA
:1002100090931901A0931A01B0931B0108956115E1
:1002200071058105910569F481E090E0A0E0B0E0FE
:100230008093200190932101A0932201B093230188
:1002400008C0609320017093210180932201909354
:1002500023015093250140932401809170008E7FEB
:10026000809370008091B0008C7F8093B00080916B
:10027000B100877F8093B1008091B6008F7D80931D
:10028000B600809170008D7F809370008091B100E6
:1002900084608093B1008091B1008C7F8093B10025
:1002A00086E090E090932C0180932B0108951092AA
:1002B0002601109227011092280110922901109214
:1002C0002A0180912B0190912C018093B200E0E7EC
:1002D000F0E0808181608083089580912601909173
:1002E0002701A0912801B09129010196A11DB11DFE
:1002F0008093260190932701A0932801B0932901B0
:100300008091260190912701A0912801B0912901A7
:10031000209120013091210140912201509123012F
:1003200082179307A407B50710F180912A0188234B
:10033000F1F481E080932A018091260190912701B8
:10034000A0912801B0912901821B930BA40BB50B3E
:100350008093260190932701A0932801B09329014F
:10036000E0912401F0912501099510922A01089548
:100370001F920F920FB60F9211242F933F934F931A
:100380005F936F937F938F939F93AF93BF93EF93FD
:10039000FF9380912B0190912C018093B2000E94D9
:1003A0006D01FF91EF91BF91AF919F918F917F91DF
:1003B0006F915F914F913F912F910F900FBE0F90D2
:1003C0001F90189508951F920F920FB60F92112447
:1003D0002F933F934F938F939F93EF93FF9380912E
:1003E000C00082FD1DC04091C60020916D0130917A
:1003F0006E012F5F3F4F2F73307080916F0190918E
:1004000070012817390771F0E0916D01F0916E01CC
:10041000E35DFE4F408330936E0120936D0102C077
:100420008091C600FF91EF919F918F914F913F91E5
:100430002F910F900FBE0F901F901895E091C10162
:10044000F091C201E05CFF4F819191912081318157
:10045000821B930B8F739070892B11F00E94E20125
:1004600008951F920F920FB60F9211242F933F936E
:100470008F939F93EF93FF932091B1013091B2013D
:100480008091B3019091B4012817390731F480911C
:10049000C1008F7D8093C10014C0E091B301F09141
:1004A000B401EF58FE4F20818091B3019091B401C7
:1004B00001968F7390709093B4018093B301209351
:1004C000C600FF91EF919F918F913F912F910F90D7
:1004D0000FBE0F901F901895AF92BF92DF92EF92D0
:1004E000FF920F931F93CF93DF93EC017A018B015F
:1004F000DD24403081EE580780E0680780E078070F
:1005000011F0DD24D39491E0A92EB12CEC89FD8962
:10051000DD2069F0C50108A002C0880F991F0A9468
:10052000E2F7808360E079E08DE390E005C010821F
:1005300060E874E88EE190E0A80197010E94A805A8
:10054000215030404040504056954795379527956B
:1005500080E12030380720F0DD2011F0DD24D6CFF7
:10056000E889F9893083EA89FB89208319A2EE8919
:10057000FF89408121E030E0C9010C8C02C0880F66
:10058000991F0A94E2F7482B4083EE89FF89408146
:10059000C9010D8C02C0880F991F0A94E2F7482BFD
:1005A0004083EE89FF894081C9010E8C02C0880F0B
:1005B000991F0A94E2F7482B4083EE89FF898081D6
:1005C0000F8C02C0220F331F0A94E2F720952823D4
:1005D0002083DF91CF911F910F91FF90EF90DF90DB
:1005E000BF90AF900895DC011C96ED91FC911D9792
:1005F000E05CFF4F2191319180819181281B390B63
:100600002F733070C9010895DC011C96ED91FC91A7
:100610001D97E05CFF4F20813181E054F040DF0105
:10062000AE5BBF4F8D919C9111972817390719F434
:100630002FEF3FEF07C08D919C91E80FF91F80814C
:10064000282F30E0C9010895DC011C96ED91FC9142
:100650001D97E05CFF4F20813181E054F040DF01C5
:10066000AE5BBF4F8D919C9111972817390719F4F4
:100670002FEF3FEF10C08D919C911197E80FF91F5C
:1006800020818D919C91119701968F739070119696
:100690009C938E9330E0C9010895DC0191968C9172
:1006A0009197882339F05496ED91FC91559780816C
:1006B00086FFF9CF91961C920895CF93DF93EC01BA
:1006C000EE85FF85E05CFF4F20813181E054F040F2
:1006D0002F5F3F4F2F733070DF01AE5BBF4F8D91A7
:1006E0009C91119728173907D1F3E05CFF4F808167
:1006F0009181E054F040E80FF91F6083EE85FF859B
:10070000E05CFF4F31832083EE89FF89208181E007
:1007100090E00F8C02C0880F991F0A94E2F7282BF3
:10072000208381E089A3EC89FD89808180648083B6
:1007300081E090E0DF91CF9108951092B80110927E
:10074000B70188EE93E0A0E0B0E08093B901909308
:10075000BA01A093BB01B093BC0188E091E09093F3
:10076000B6018093B5018DE291E09093C201809330
:10077000C10181E791E09093C4018093C30185ECAE
:1007800090E09093C6018093C50184EC90E0909333
:10079000C8018093C70180EC90E09093CA018093D8
:1007A000C90181EC90E09093CC018093CB0182EC65
:1007B00090E09093CE018093CD0186EC90E09093F1
:1007C000D0018093CF0184E08093D10183E08093B6
:1007D000D20187E08093D30185E08093D40181E04A
:1007E0008093D5010895CF93DF930E94CE040E9499
:1007F000A100CEE1D2E00E948C002097E1F30E949C
:100800001E02F9CFCF92DF92EF92FF920F931F93C8
:10081000CF93DF937C016B018A01C0E0D0E00FC071
:10082000D6016D916D01D701ED91FC910190F081A0
:10083000E02DC7010995C80FD91F015010400115BF
:10084000110571F7CE01DF91CF911F910F91FF90AC
:10085000EF90DF90CF9008951F920F920FB60F92F6
:1008600011242F933F938F939F93AF93BF938091C6
:10087000DB019091DC01A091DD01B091DE013091AE
:10088000DF010196A11DB11D232F2D5F2D3720F013
:100890002D570196A11DB11D2093DF018093DB012F
:1008A0009093DC01A093DD01B093DE018091D7012C
:1008B0009091D801A091D901B091DA010196A11DC2
:1008C000B11D8093D7019093D801A093D901B09323
:1008D000DA01BF91AF919F918F913F912F910F902E
:1008E0000FBE0F901F9018958FB7F8942091DB01E1
:1008F0003091DC014091DD015091DE018FBFB901E3
:10090000CA0108959FB7F8942091D7013091D8017A
:100910004091D9015091DA0186B5A89B06C08F3F5E
:1009200021F02F5F3F4F4F4F5F4F9FBF542F432FFB
:10093000322F2227280F311D411D511D82E0220F29
:10094000331F441F551F8A95D1F7B901CA01089575
:10095000EF92FF920F931F93CF93DF937B018C0154
:100960000E948204EB010EC00E9482046C1B7D0B6E
:10097000685E7340C8F30894E108F10801091109A1
:10098000C851DC4FE114F1040105110569F7DF914D
:10099000CF911F910F91FF90EF900895789484B5B7
:1009A000826084BD84B5816084BD85B5826085BD6B
:1009B00085B5816085BDEEE6F0E080818160808351
:1009C000E1E8F0E010828081826080838081816034
:1009D0008083E0E8F0E0808181608083E1EBF0E0FB
:1009E000808184608083E0EBF0E08081816080839F
:1009F000EAE7F0E080818460808380818260808388
:100A00008081816080838081806880831092C100B2
:100A10000895CF93DF93482F50E0CA0186569F4F29
:100A2000FC0134914A575F4FFA018491882369F1A0
:100A300090E0880F991FFC01E859FF4FA591B491F0
:100A4000FC01EE58FF4FC591D491662351F42FB7A6
:100A5000F8948C91932F909589238C938881892386
:100A60000BC0623061F42FB7F8948C91932F90955E
:100A700089238C938881832B88832FBF06C09FB7DF
:100A8000F8948C91832B8C939FBFDF91CF91089525
:100A9000833071F0843028F48130A1F0823021F568
:100AA00014C08630B1F08730D1F08430E9F404C04E
:100AB000809180008F7703C0809180008F7D80932C
:100AC0008000089584B58F7702C084B58F7D84BD82
:100AD00008958091B0008F778093B0000895809141
:100AE000B0008F7D8093B0000895FF920F931F9305
:100AF000F62E482F50E0CA0182559F4FFC012491E9
:100B0000CA0186569F4FFC0114914A575F4FFA0164
:100B100004910023C9F0222319F0822F0E94480576
:100B2000E02FF0E0EE0FFF1FEE58FF4FA591B491BC
:100B30009FB7F894FF2021F48C911095812302C077
:100B40008C91812B8C939FBF1F910F91FF900895E3
:100B5000A1E21A2EAA1BBB1BFD010DC0AA1FBB1FC1
:100B6000EE1FFF1FA217B307E407F50720F0A21B33
:100B7000B30BE40BF50B661F771F881F991F1A94A0
:100B800069F760957095809590959B01AC01BD01CA
:100B9000CF010895EE0FFF1F0590F491E02D099409
:040BA000F894FFCFF7
:100BA4000E000F00000000005D030204F3022403A2
:040BB40004034D03E6
:00000001FF
